:200000005C4000200D70000001CA011001CA011001CA011001CA011001CA011001CA01107F
:1C00200001CA011001CA011001CA011001CA011001CA011001CA01103FCA011082
:20003C0000008001100082FFFDFF58003AFFBFF3FFFFFFFFFFFFFFFFFFFFFFFFFFFFFFFF63
:20005C00FFFFFFFFFFFFFFFFFFFFFFFFFFFFFFFFFFFFFFC5FFFFFFFFC5FFFFFFC5C5C5FFC6
:18007C00C5C5C5FF00000000FFFFFFFFFFFFFFFFFFFFFFFFFFFFFFFF2E
:200100003C000000000000000000000034010000000000000000000001000000000000006D
:1C01200000000000000000000000000001000000000000000800000000000000BA
:20013C00340000000000000000000000680100000000000000000000010000000000000005
:14015C00010000000000000000000000080000000000000086
:2001700030000000000000000000000098010000040000000000000001000000FFFFFFFFA5
:10019000FF00000001000000080000000000000057
:2001A0002C0000000000000000000000C4010000040000000000000001000000FFFFFFFF4D
:0C01C000FFFFFFFF08000000000000002F
:2001CC0034050000E401000099A1011095A70110A5C2011009B2011045B80110000000000B
:0801EC00000000002E000000DD
:2001F400280000000000000000000000140200000000000000000000FFFFFFFF00000000B1
:080214000800000000000000DA
:20021C00300500003002000069C201106DC101101FC2011095BA011000000000000000008E
:04023C00300000008E
:20024000300500005402000075C20110A9B601109DBF011049B601100000000000000000DE
:040260003100000069
:200264002400000000000000000000008002000000000000000000000000000008000000CC
:040284000000000076
:20028800240000000000000000000000A40200000000000000000000000000000800000084
:0402A8000000000052
:2002AC00240000000000000000000000C8020000000000000100000000000000080000003B
:0402CC00000000002E
:2002D000000000009022002004000000000000000000000020000000700100003000000077
:2002F0001C020000982200200400000000000000000000000C00000030040000180000009A
:2003100040020000A02200200400000000000000000000002400000048040000180000001D
:2003300000000000A822002004000000000000000000000010000000A00100002C000000E2
:20035000CC010000B022002004000000000000000000000020000000640200002400000020
:20037000FFFFFFFFB82200200400000000000000000000002800000088020000240000009D
:20039000FFFFFFFFC0220020040000000000000000000000580000003C0100003400000082
:2003B000FFFFFFFFC822002004000000000000000000000010000000600400001800000097
:2003D000FFFFFFFFD02200200400000000000000000000001C000000AC020000240000000D
:2003F000FFFFFFFFD822002004000000000000000000000038000000F4010000280000007E
:20041000FFFFFFFFE022002004000000000000000000000054000000000100003C00000019
:1804300018000000000000000000000040040000080000000000000050
:1804480018000000000000000000000058040000080000000000000020
:18046000180000000000000000000000700400000800000000000000F0
:0804780001000000CCAC000003
:040484000100000073
:0404880000000C0064
:04048C0000000D005F
:040490003200000036
:040494000200000062
:04049800B020002070
:04049C00000200005A
:0404A0000000000058
:0404A40001CA011078
:0404A8000000000050
:0404AC00000000004C
:0404B0000800000040
:0404B4000000200024
:0404B800E01F002021
:0404BC00010000003B
:0404C000EC2100200B
:0404C400080000002C
:0404C8000000000030
:0404CC00000000002C
:0404D0000000000028
:0404D4000000000024
:0404D8000000000020
:0404DC00010000001B
:0404E00010210020C7
:0404E400060000000E
:0404E800010000000F
:0404EC00041F0020C9
:0404F0000000000008
:0404F4000000000004
:0404F80000020000FE
:0404FC0000000000FC
:020502002A00CD
:020504000100F4
:020506002500CE
:020508003000C1
:02050A003100BE
:02050C002E00BF
:02050E000100EA
:0105100001E9
:08051400030000001CAC000014
:08051C000000000000000000D7
:0405240000000100D2
:0405280000000300CC
:04052C0087C401106F
:04053000380500008A
:040534003805000086
:0405380000000000BF
:04053C00800000003B
:040540008000000037
:0405440000000000B3
:04054800EC21002082
:04054C00D79F000035
:040550002000000087
:0405540050A90000AA
:0405580074A8000083
:04055C000DC30110BA
:04056000EB56000056
:0405640087580000B4
:0405680099C801101D
:04056C009BC8011017
:040570000000000087
:04057400A3AB000035
:040578008CA700004C
:04057C00A4A7000030
:0405800074A700005C
:0205840008006D
:0205860009006A
:02058800010070
:02058A0000006F
:01058C00016D
:040590000000000067
:040594000000000063
:04059800000000005F
:04059C00000000005B
:0405A000FD9C0000BE
:0405A400A975000035
:0405A8002D90000092
:0405AC006171000079
:0405B000615C00008A
:0405B400C97C0000FE
:0405B800A94800004E
:0405BC003596000070
:0405C000E95E0000F0
:0405C40011C8011049
:0405C80021C8011035
:0405CC000800000023
:0405D0002400000003
:0405D400180000000B
:0405D80028000000F7
:0405DC0020000000FB
:0405E0003C000000DB
:0405E4000C00000007
:0405E80034000000DB
:2005EC002DE9F84F054640F29421012441F22D00C4F22231C4F2090040F81D4C086810B939
:20060C0008680028FAD046F2000043F6B477C021C4F20C00C5F2000701603E6857F8040C09
:20062C0046F25622C4F20802800806D257F8080C000C40F0F000107001E07220107041F2A9
:20064C00B820C5F200000068C0F3046009F07BFD39680B171B185B1C13F10A0FB8BF6FF0AF
:20066C0009034FF0000CF10EB00E03F01F0381F00101C4F2203C80F0010043F4F85301F0DC
:20068C000101138300F00100CCF800103146CCF80800284602F04EF8814609F0D5FD002155
:2006AC00002808BF211C48F20008C4F20C08D8F8000018B9D8F800000028F8D04AF2080A47
:2006CC00C4F20C0ACAF81090C8F8004009B109F0C1FD284608F088FE40F2FF32002380B2CB
:2006EC002C2100904AF20000C4F20C0005F024FC284609F059F9814609F0A6FD0021002899
:20070C0008BF211CD8F8000018B9D8F800000028F8D0CAF81490C8F8004009B109F09AFDB8
:20072C00284608F09DFA814609F08EFD0021002808BF211CD8F8000018B9D8F8000000287F
:20074C00F8D0CAF80C90C8F8004009B109F082FD284608F0E3FD814609F076FD0021002873
:20076C0008BF211CD8F8000018B9D8F800000028F8D0CAF80890C8F8004009B109F06AFD94
:20078C00284603F055FE814609F05EFD0021002808BF211CD8F8000018B9D8F80000002898
:2007AC00F8D0CAF80490C8F8004009B109F052FD284609F0C9F84AF24009C4F20C09400055
:2007CC0040F0200089F80901284609F0C9F840F0100089F80901284608F016FE834609F003
:2007EC0033FD0021002808BF211CD8F8000018B9D8F800000028F8D0CAF820B0C8F800407D
:20080C0009B109F027FD284609F0B6F8400040F0600089F80C01284609F0BAF8C00040F079
:20082C00800089F80101284609F0CAF8800040F47C40A9F89C01284607F064FE834609F049
:20084C0003FD0021002808BF211CD8F8000018B9D8F800000028F8D0CAF800B0C8F800406C
:20086C0009B109F0F7FC442089F8C5004FF0880E89F8C7E0284609F053FA40F03001C6F351
:20088C00815089F8C81078B3401E06D0401E26D00420022105F081FE30E0204608F0D4FB77
:2008AC0005460420294605F078FE042008F0CCFB8542FAD157F80C5C25F07F4007F070FB81
:2008CC0040F2B410C1F200000068036807214FF06022280E98474FF48060C9F8000004208A
:2008EC00032105F05AFE09E00420214605F055FE43F2BD70C0F2860007F052FB41F2B820D6
:20090C00C5F20000D0F8B4004BF2700242F22C0E46F2000B47F618014FF0000C41F22D0A2D
:20092C00C4F20C02C4F2090E40F2944800F03F0089F8CB0FC4F20C0B1180DEF80000CBF88B
:20094C0000C0C4F2090A4AF81DCCC4F26028C8F80040BDE8F88F70472DE9F84FC64DC74E31
:20096C00D5F8EF1FCC4C7368D5F8F30F8843C5F8F30F002BC5F8FF1F00F011817788012B91
:20098C0000F0D680DFF8FCB2BF4FDFF800A3DFF80093DFF80083022B72D0032B40F06A817C
:2009AC000024B06855F8312C74600028A2F5C062B8BF404211460029B8BF494288422EDA43
:2009CC00111C54BF02206FF00100B26900EB4100032190FBF1F18918B161F36870699842B0
:2009EC000BD0B1F11002B8BF524230691038B8BF40428242B8BF88B209DB98B20090A0485C
:200A0C0030214FF47F42082305F096FA308A00909B4804214FF4F802122305F08DFA5846E7
:200A2C00046001688908FCD20460012644600E203E6002F081FA50460468EFF3118584F325
:200A4C00118849460820B0FA80F00A1AD07F431E0128D37704D14246106820F0080010607C
:200A6C0085F31188EFF3118384F311880420B0FA80F0091AC87F421E0128CA7754D14EE00E
:200A8C0055F8310CB0F5C06F17D00327776001F0E5F945F8397C0027276020688008FCD2B7
:200AAC007748394660220523009105F045FA0126266020688008FCD364E00021716058461D
:200ACC00016002689208FCD20160012641600E203E6002F031FA50460468EFF3118584F3D4
:200AEC00118849460820B0FA80F00A1AD07F431E0128D37704D14246106820F008001060DC
:200B0C0085F31188EFF3118384F311880420B0FA80F0091AC87F421E0128CA7704D1424663
:200B2C00106820F00400106083F31188BDE8F88F55F8312C02214BF2F52071605043000AE5
:200B4C0037B95649096821F07F414018400801E0002171806060000CA0600126E6600327C2
:200B6C0045F8397C0027276020688008FCD24448394660220523009105F0DEF926602068CB
:200B8C008008FCD345F8216C45F8397C0820C5F8FF0FC5F8F30F45F8396CBDE8F88F4048EE
:200BAC000068006801462020884741F61D574FF002080F2045F82D0C00214FF4C0720723AA
:200BCC0045F8297C2E48CDF8008005F0B5F9012744F8047C54F8040C8008FBD3308845F83E
:200BEC001D7C012821D0032045F8390C4FF00009C4F8009020688008FCD2214849466022A5
:200C0C000523009105F098F9276020688008FCD345F8217C45F8399C0820C5F8FF0FC5F887
:200C2C00F30F45F8397C474623E04FF00009C4F80C90032045F8390CC4F800902068800883
:200C4C00FCD20F48CDF8008049466022052305F073F9276020688008FCD3202045F8210C74
:200C6C0045F8399C0824C5F8FF4FC5F8F34F45F8397C7760BDE8F88F39400C409C21002089
:200C8C0000A00C4034600C4004800C40C4AC0000E8220020381D002038600C401020094040
:200CAC00A00100102DE9F04F8146B9F1010FADF11C0D40F05781AD480068EFF3118280F38D
:200CCC001188DFF8CCB29BF80400012818BF012003D1022100208BF8041082F3118801287D
:200CEC0000F03E8109F08AFC0390AA48046804EB0B0009F07FFC4FF00008464637460BEB15
:200D0C000401CDF810800191B0B90C46084609F06DFC0546A868400808D3E86829690246C8
:200D2C0001209047C0B2012800F01281284609F059FC0546AC42EDD1002F40F00D8109F0F8
:200D4C004DFC029005978A480760012008F07CF9012804D1404606F0E1FB4FF00108854FD7
:200D6C0038688068014630468847874819300090D0F8FF0FB9F1010F40F08C80864C0A34CF
:200D8C00E57905B10126A5790DB146F0020665790DB146F00406DFF8E09165782DB1B86AF1
:200DAC00006B49460246C88D904725782DB1B86A006B49460246488D9047704901200860EC
:200DCC00B86A8069014646F0200088476C4DDBF80010286840F001002860480813D26948C5
:200DEC0009F0AAF98246BAF1040FF8D0D5F8180220F00300C5F81802B86C4068024661486F
:200E0C000321904701E001200490059800F0EEFBB86A0099806BD1F8FF1F8047049858B9BE
:200E2C00B86C40680246574851469047D5F8180240F00300C5F818023868806801460120A4
:200E4C008847514801688909FCD3B8F1010F02D1012006F063FBB86A4069014630468847FC
:200E6C00B86A406B0146304688470128F8D166782EB1B86AC06A49460246C88D9047267871
:200E8C002EB1B86AC06A49460246488D90473B49012008603A480168032221F00101016007
:200EAC0001988BF8042009F0A5FB0028059818BF01200125C8B9019C204609F097FB06460F
:200ECC00B068C00807D3F0683169024604209047C0B2012806D0304609F084FB0646B44276
:200EEC00EED102E02948006880472148009F0560D7F8FF0F09F0AEF9019809F07BFB059F0F
:200F0C00D0B9019C204609F071FB0646B068000907D3F0683169024608209047C0B20128B9
:200F2C0006D0304609F05EFB0646B442EED103E0164800688047022702988BF8045009F003
:200F4C0049FB04F095FD039809F040FB38460AE00E4800688047022701208BF80400F2E755
:200F6C00062000E0022007B0BDE8F08FC4AC00000C4009409001001028A70000282008603D
:200F8C000C2008400040034014100940B8AC0000381D0020B4AC00002C220020F8B5A0F2FB
:200FAC00013517460E46022D40F20A81874A8549854B2D1F0F2D04D9143D4AD0AD1E1CD05C
:200FCC0011E0DFE815F0B900B400EA00DA00AD00A600FD009E00970010001000900086005C
:200FEC0079006E006000272880F2EA80022E40F0E780398806F0EAFEF8BD012E40F0E08099
:20100C000A469078012800F0DB80D1783878D07081B9002800F0D4801078012800F09F8059
:20102C00042800F09C80062800F09980052800F09680F8BD3878002840F0C2801078032850
:20104C0000F09880072800F09580052800F09280F8BD012E40F0B4803878012840F0B08098
:20106C001D4605F1F00009F00DF8002840F0A880002004F0F3F9002840F0A2802846CC30B9
:20108C0009F0E6F9F8BD022E40F09A8038880A28C0F29680B0F5486F00F3928011461E317C
:2010AC0015E0022E40F08C803888B0F5FA7F80F2878011461C310AE0022E40F081803888BD
:2010CC0006287DDBB0F5486F7ADC11461A310880F8BD022E74D13888062871DBB0F5486FE2
:2010EC006EDC1731F3E7012E6AD13878022867DA0A310CE0012E63D13878042860DA093119
:20110C0005E0012E5CD13878082859DA08310870F8BD012E54D13878042851DAC91DF6E7EB
:20112C00012E4DD1387804284ADC891DEFE7022E46D138881331CAE7012E41D10A46D07803
:20114C0001283DD091783878907061B9002837D01078012803D0042818BF052830D1012075
:20116C0008F04EFDF8BD387850BB1078022818BF052825D108F046FFF8BD1D4605F189042C
:20118C0000211F22204603F0D7FD39463246204602F088FF0020AE710EE01D4605F16A04EA
:2011AC0000211F22204603F0C7FD39463246204602F078FF01206E713146224605F068FAA8
:2011CC00F8BDC046E5090020E4090020E40900202DE9F0410446DFF81C82A2780026101CAE
:2011EC0000F0D780801E00F0B180401E012840F28780801E52D0401E26D0401E03D0083898
:20120C0000F0EA80EBE0454605F1F00009F020F96078002840F0E380E088288420896884DE
:20122C006089A88405F1CC0008F02CFF002840F0D6806B6B002B00F0D2801B68288C698C8B
:20124C00AA8C9847BDE8F081A08807F035FF45463146062205F1440003F06EFD2E846E849E
:20126C00AE84A079687305F1CC0009F0F1F805F1F00009F0EDF801264FF6FF702F79E882E7
:20128C004FB9A079082814BF042005206870304608F0B6FCA3E003206870A0E04546677875
:2012AC00EA7A2FBB211D0B6805F1440003608988818006276F706089E882E0892884208A56
:2012CC006884608AA884E078012A28730AD11F2006F084F94FF47A71024605F1CC00514389
:2012EC0006F044FCE0786289211D06F0CFFB78E06078312818BF08201CD1EE70042019E07B
:20130C006778002F63D14546A98A6878032A13D0EA782F7921B9012A14BF2E71EE7006E00C
:20132C00174304D005F1A80006F020FC68780728E4D10620687054E0062805D0E878002842
:20134C000CBF03200220F5E70720F3E76078651C00283CD14046E77881798FB941780229FB
:20136C0014D0072912D0062902D1017901290DD1A83008F087FE48B9012008F041FC05E056
:20138C0000F18902304605F083F928702878F0B925E06078D8B945460220102105F14A026F
:2013AC0006F032FE0320102105F15A0206F02CFEE41C05F13800A7882168878005F16A02E6
:2013CC00016001206979687005F062F948B1454608206D1C287004E0A08808F0F7FE012E80
:2013EC0006D14546286B18B1016809B168788847BDE8F081E40900202DE9F0411C4615462A
:20140C008C4208BF854282BF00230022E5E0002C08BF002D0AD100290EBF00286FF00000A1
:20142C006FF0000100F0E1F8BDE8F0815FF000085FF0000E002C08BF8D429CBF2C1C002523
:20144C00070C47EA01470E0CB44208BFBD429EBF5FEA044444EA15445FEA0545070A47EAD4
:20146C0001670E0AB44208BFBD429EBF5FEA042444EA15645FEA0525470847EAC1774E082E
:20148C00B44208BFBD4200F29380870847EA81778E08B44208BFBD427CD8C70847EA417769
:2014AC00CE08B44208BFBD4266D8070947EA01770E09B44208BFBD4250D8470947EAC167F3
:2014CC004E09B44208BFBD423AD8870947EA81678E09B44208BFBD4224D8C70947EA41673A
:2014EC00CE09B44208BFBD420DD8E60146EA5566EF01B14208BFB84201D3C01BB14158EB0E
:20150C0008085EEB0E0EA60146EA95664FEA8517B14208BFB84201D3C01BB14158EB0808FB
:20152C004EEB0E0E660146EAD5666F01B14208BFB84201D3C01BB14158EB08084EEB0E0E0B
:20154C00260146EA15762F01B14208BFB84201D3C01BB14158EB08085EEB0E0EE60046EA4A
:20156C005576EF00B14208BFB84201D3C01BB14158EB08084EEB0E0EA60046EA9576AF0018
:20158C00B14208BFB84201D3C01BB14158EB08084EEB0E0E660046EAD5766F00B14208BF38
:2015AC00B84201D3C01BB14158EB08085EEB0E0EA14208BFA84201D3401BA14158EB0808D4
:2015CC005EEB0E0EA34208BFAA423EBF2D0A45EA0465240A89D3734642461E4617460B4659
:2015EC00024631463846BDE8F0817047F8B507460020C4F209000068800880F0CA8007F05B
:20160C0022F842F22421C4F208010A68002112F0030F18BF0121D20828BF41F00201002FA8
:20162C0018BF41F0040143F62836C2F2000696F90720821A052A04DAB2798A4208BFB288E9
:20164C0071D041F29C340F28A0F10F02C5F2000426DB02EB0012F03A1712072F88BF0727A8
:20166C00BC46BCF1060F88BF4FF0060C54F82CE00423254603EB8C03EB58CD08A3EB0E03E4
:20168C0003F0FF0C24BFC3F30725AC448D0824BFC3F30745AC444D0805D30CEB136C02E09C
:2016AC004FF0000C674654F82730CC0803F0FF0524BFC3F3072425448C0824BFC3F3074413
:2016CC0025444C0828BF05EB1365A2EB07221FFA8CF3534380330022082B88BF012243F663
:2016EC00B473C5F200031C681B684FF4D07C34275219241703F0FF0307FB14C45C434FF6B3
:20170C00FF73B4FBF2F2934238BF1A1C802892B2B28005DA10F1800F03DA6FF07F0000E08E
:20172C007F20F071B17142F20800C4F2090001681F2A4FF00000316015D340F2FF139342FD
:20174C0013D219465208401C93420ED25208401C93420AD25208401C914206D25208401C50
:20176C009142EFD301E01F22B2800F3A4FF600714FF0350E1209C8F2A401C4F2090E40EA82
:20178C00C2000143CEF8FB1F4FF0000CCEF8FFCFF8BD43F62E324FF6FD50082141F2300EFE
:2017AC00C2F20002C0F2A4001170C4F2090ECEF80000F8BD2DE9F04FADF15C0D06F0EBFA11
:2017CC000027012804D108F0A7F8022808BF012751490868C0F38150012806D151F80C0C39
:2017EC000126010E06FA01F007434C484C4E00783068C0F3460606F0CEFA012808BF761CEF
:20180C00484C26603EB1FF2204F140013046401E01F8012BFBD1DFF81091D9F800004FF00F
:20182C00000800F0FF01FF2918D04D4600F0FF03414601229E426CD902FA03F31F4268D1B4
:20184C0000F0FF00201880F8401055F8040F43EA0808491C00F0FF03FF2BEBD1092001F099
:20186C00FFFAC4F8049001A800212422082308F0A9FE4FF0010A04F1240001AA8DF81CA0EA
:20188C00514608F09BFE236833B300262546B34660350AFA06F0074218D118EA000F04BF84
:2018AC0006F0FF0141F4C04104D0A01990F8400059F820101D4802F043F8F0B24FF0FF3177
:2018CC0007F060FF2368C5F800B001E004202860761C2D1D9E42DCD30AA800213022082366
:2018EC0008F068FE002010210AAB114A009004F1080008F05BFE0F4951F80D0C20F4F85029
:20190C0040F4005041F80D0C5746C1F8FF7F0A4E376017B0BDE8F08FB43F0050363B002063
:20192C008012084028380020041E0020007FC767496D00000D30094008000940F0B5ADF182
:20194C00140D03F001FF5C4C04F1280004F1780102F0B6FD594FE060394608F03CFD07F000
:20196C00CFF904F1340008F0F5FB4FF47A720023534920610420009004F1940005F0D6F813
:20198C001F20012106F022FA0020ADF806008DF808000125ADF80E004FF44871ADF80C10DA
:2019AC0008268DF8045001AAADF80A6064202946ADF8100040F20530FFF7F0FA40F2063003
:2019CC0002210DF10602FFF7E9FA04F15A024FF442701B21FFF7E2FA04F14C0240F20730F9
:2019EC000E21FFF7DBFA4FF44470294602AAFFF7D5FA40F2113002210DF10A02FFF7CEFAAC
:201A0C0040F21230022103AAFFF7C8FA40F2133002210DF10E02FFF7C1FA4FF4457002214C
:201A2C0004AAFFF7BBFA08F0DDFB08F0E3FA0620A02106F0CBF90720A02106F0C7F93046E7
:201A4C00A02106F0C3F90920A02106F0BFF908F0B3FC08F0F3FC08F0AFF905F041F803F020
:201A6C0059FA7F2814BF0A200F20052105F0A6FA05F03BFA08B902F075FA04F0BDFC05F08B
:201A8C0009F808F0F3FB07F083FB06F01BFC08F0E7FB05F023FC08F0D5F904F1400008F0F0
:201AAC0059FB606107F00CFE07F018FBE068394608F091FC05B0F0BD20050020C59B0000A7
:201ACC00DD9B0000B0B5456884684B48297BADF1180D012916D0217C627C484B2F7E01437B
:201AEC00009143EA02010191454937F0010718BF081CA27C1043029095F859000322FF289A
:201B0C0011D00DE0677C217C3843A37C019041F00041009143F000403A49029095F85900CF
:201B2C00014304220391FF204DF82200694605F15C0002F0C5FCA866002808BF002058D01C
:201B4C00287B314951F82000012828D02068B0F1804F14BF22220A22217CA86E07F0F4FAFF
:201B6C002068B0F1804F14BF21220922617CA86E07F0EAFA2068B0F1804F14BF24220C2213
:201B8C00A17CA86E07F0E0FA95F85910FF292FD02068B0F1804F14BF23220B2225E020684E
:201BAC00B0F1804F14BF21220922217CA86E07F0CBFA2068B0F1804F14BF22220A22617CE1
:201BCC00A86E07F0C1FA2068B0F1804F14BF24220C22A17CA86E07F0B7FA2068B0F1804F1F
:201BEC0014BF23220B2295F85910A86E07F0ACFA012006B0B0BDC046000480A000400080BD
:201C0C000004C0A000200080BCA700002DE9F04304466668A5680F46ADF1540D08F0C2FCD9
:201C2C0096F8A4102D1D012903D108F0B7FC002076E04FF0010986F8A49008F0AFFC1FB977
:201C4C000DA808F027F90DAF4FF00008C6F854803869306178697061387E3076387B307380
:201C6C0038783070786886F87080706078694146092828BF494686F85810687801F0F0F83C
:201C8C00204604F0DFF9E87B86F859002046FFF719FF50B9687801F04FF908F083FC86F841
:201CAC00A48008F07BFC444639E001A841463022082308F07FFC0694CDF800801A4A2978DE
:201CCC0006F11C0001AB08F071FC307878B901A841462422082308F075FC8DF81C9006F1C9
:201CEC003800414601AA08F069FC104800E0B868B06004F0D3F9F066307B012806D1B06ECA
:201D0C000B4908F068FBB06E00B18460094ACDF8008006F190000421234606F0C3FB20468E
:201D2C0015B0BDE8F083C046692300007DA3000015770000C1A200002DE9F04F0C464649E3
:201D4C008A8BADF13C0D84460992487B0D90CE7800964A8B0892888C0C900A8B488C0792B9
:201D6C0091F80CE00B908E78CA7A088C0692CB8A0A908A7A91F804A005924A7AC88B04926D
:201D8C000A7A91F801800392CA798D8A02928A79CF6A01924A79E146A9F54079B9F11D0F40
:201DAC0010D8DFE809F0554F4D4B49474543403D3B393634320F312F2D2B2A24211F1D0F0D
:201DCC001A191816BCF1270F43DA604605F006FC13E0DDF834E0F246D046CDF8148016E080
:201DEC000C980B900B980A900A98054620E04431086820608888A0802BE0099009980890FC
:201E0C000898079007980690069B238021E0059804900498039001E03E31E9E70398029058
:201E2C000298009006E0019A89310DE06A310BE02846E2E7009E0BE03831D9E7276008E066
:201E4C005A3100E04A311022204602F02BF900E026700FB0BDE8F08FE40900202DE9F8432B
:201E6C00804608F0F1F9002100B901213A4D2D1F28680028FCD0DFF8DC90012609F10407EC
:201E8C00FC6A2E6009B108F0E5F93448C4F3072100F10804616008F0D7F90146002001B9B0
:201EAC003046014628680028FCD03F682E6009B108F0D0F9C7F38441A8F5C060A160B8F53B
:201ECC00C06F2060B4BF6FF001030223626803EB4003032093FBF0F00918104602290FDB34
:201EEC001E290BDB3F28B9BF521C401C3F22101CE2603029B4BF10391F210DE0E0600BE0C4
:201F0C0010F13F0FACBF401E6FF03F00E06011F1100FACBF10310021216180B24FF47F4219
:201F2C00082330210090484604F006F80096484604214FF40032112303F0FEFF208A042158
:201F4C004FF4F80212230090484603F0F5FFBDE8F883C04600A00C4004800C409C2100203F
:201F6C002DE9FE4F0E4683460CAF307A3D8898461446800928BF08206FD2084601A906F0AC
:201F8C00B5FD012808BF012067D0BDF80400DFF8D0A042F6021100274FF0FF09401A48D010
:201FAC0048F2FF21401A32D0401E18D0401E3ED1002D3AD1B8F1020F35D12078062824DAF0
:201FCC00F06821880180F1685046884239D151460878497803F01AFD4FF0020934E025BB90
:201FEC00B8F1060F1FDA207810280EDCF0682146424602F057F803F043FFF16850460C307C
:20200C0088421ED14FF001091EE0802719E065B9B8F1100F07DCF0682146424602F042F8D8
:20202C0004F076FC0DE00D270BE00B2709E00A2707E00095584643463146224604F034FE2E
:20204C000746B9F1FF0F07D05046001D006818B1016809B1484688473846BDE8FE8FC0467E
:20206C00181900202DE9F04707467C68BE6808F099FA0834E16C002967D008F08FFA3168D1
:20208C00486820F0020048603168486A20F003004862656EF068B168084369680968C1F838
:2020AC0004053168486920F00100486130684FF00108C0F820803068B0F1804F14BF40F2C2
:2020CC0001104FF48070234909688847384603F0B9FFE06CD0F804A008F064FA1E4D81469B
:2020EC00287850B11AF0704F02D1102005F092FC042005F08FFC00202870484608F04EFABA
:20210C00E16C087C042802D003200874E16CB268F068636E4546104305FA00F258680068BE
:20212C00C2623068B0F1804F14BF0C480C480E68006800258204A6EB9250401E08603846AC
:20214C002268E5649047BDE8F08708F027FABDE8F087C04678000010353B0020080500202D
:20216C00380400202DE9F0413A4E307800286ED0394C208910F07F0F00F07F0865D005F0BD
:20218C0067FC364F21783D78A0700DB9022934D12279C30913D2400820D305F057FD05F032
:2021AC00FDFBE078E188002808BF217816D000254FF47A70E57090FBF1F0217809E0521CE9
:2021CC00D0B20228207109D1E0884FF47A72B2FBF0F002B2500000EBC200E0600025022977
:2021EC003D700AD12089C00907D300F039F8052821D008B103F0BAFD2178E76817B901297B
:20220C001AD122E0022909D0022020700027277103F090F910B1404605F044FF2089000AA2
:20222C0002D3E068401EE06004F114020020122103F0DCFE09E0E56000202071012727700E
:20224C0003F078F908B100F09DFD00203070BDE8F081C046303B0020B81E0020313B0020E2
:20226C003EB53C4C0621601C017007F04FFE18B908F00EF800203EBD0025012068216570F1
:20228C0003F0B6F82220694601228DF80000372006F09EFE08B90520607007F0F9FF607892
:2022AC00002818BF281C54D101200C2103F0A0F802206946012207F075FF00283CD09DF8A9
:2022CC000000400836D303200DF10101072207F069FF68B39DF80700000927D29DF8021096
:2022EC009DF80100B4F908501B4B9DF8042040EA012000B268439DF803500112A3F11400CD
:20230C00B4F90A30018445EA02219DF806509DF8052009B259430912B4F90C30418442EA02
:20232C00052109B259430912818407E0032004E0042002E0022000E00120607011208DF857
:20234C000000694601220A2006F042FE07F0A0FF60783EBD18200020CC1E00202DE9F04727
:20236C000646B1680A687468D06908341062400841D2606E40680268CD68D2F8040528420A
:20238C0006D00B68586A20F002005862C2F80455D2F804258868024256D00A68506A20F0BE
:2023AC00010050628868616E49680968C1F80405E06C00250574E76CD7F804A008F0F2F829
:2023CC00DFF88880814698F8000050B11AF0704F02D1102005F01EFB042005F01BFB40462B
:2023EC000570484608F0DAF82268E564304639469047BDE8F0870A68506920F0010050615C
:20240C00E76CF7B9506820F002005060506A20F0030050628B68C868616E49680968184345
:20242C00B2F1804FC1F804050CBF4FF4807040F20110074909688847304603F003FEBDE87C
:20244C00F0873046FFF70EFEBDE8F087353B00207800001038482DE9FC470068006801465D
:20246C0020208847354DDFF8D8A04FF002080F2000214FF4C072072345F82D0C41F61D501E
:20248C0045F8290C5046CDF8008003F055FD2D4C012644F8046C54F8040C8008FBD3DFF8C9
:2024AC00A890B9F8000045F81D6C01281FD0032045F8390C0027276020688008FCD2394699
:2024CC00504660220523009103F036FD266020688008FCD345F8216C45F8397C0820C5F8F3
:2024EC00FF0FC5F8F30F45F8396C464620E00027E760032045F8390C276020688008FCD21D
:20250C00CDF80080504639466022052303F014FD266020688008FCD3202045F8210C45F85B
:20252C00397C0824C5F8FF4FC5F8F34F45F8396CC9F80460BDE8FC87A001001039400C40FF
:20254C0000A00C4038600C409C2100202DE9F043ADF1140D01F0B0FB384C4FF00309082720
:20256C004FF6FF780026254607F0F0F820BB009601A80DF106016A4605F0F2FFE0B9BDF820
:20258C000400102814D1208ABDF8061088420FD100980188884509D14088C00B08D3042095
:2025AC0005F12C02014605F02FFD01E004F030FB009808B107F094FA608A41082CD320F06B
:2025CC0001002379E178608253EA010224D073B9E079237A8DF8080005F13E018DF8093041
:2025EC000A680DF10A031A608988998001E08DF80890607A8DF81000A37A8DF8113002A8B4
:20260C0007F0DEFD38B1236B677023B11A6812B1196838468847608A810806D320F0020049
:20262C006082304602F01AFF608AC1089CD320F00400608206F018FA96E7C046E40900207B
:20264C00F8B5154603784278384CC67842EA03228378120142EA231C0279238842EA06222B
:20266C004079B4F90A60120142EA2012C3EB2210D210A2EB4302B4F902304043534302136C
:20268C00B4F904005043801300EBE32000EB8002803212120A60A11DB4F908404010A0F524
:2026AC007A4082105243531373434443641004EBE3044FF4004303EBA4430C885C43E713B8
:2026CC0032D0B1F90830B1F90A40D612584304FB06F2174BB1F9066040F6354402EB40024C
:2026EC00300404FB1C3300EBA200021304FB1230C20F19BFB0FBF7F040004000B0FBF7F01C
:20270C00B1F91030B1F90E70B1F90C60C20884085243520B5A4307FB04F35B1303EB2233F6
:20272C00F11800EB21102860F8BDC046DC3A0020000050C310B50B46002804BF40F6FF7036
:20274C00C0F20F006ED041F25030C5F2000000689A0CC0F38361C0F38F2061D243F307226B
:20276C00002A26D55442B2F1FF3F4FEA640415DA400805D1490806BF0121081C4FF6FF70F3
:20278C00400802F1010205D1490806BF0121081C4FF6FF70641E02F10102E9D15B0A08D397
:2027AC00400805D1490806BF0121081C4FF6FF70521C002A34DD022A4FEA620302F0010475
:2027CC001DDB4FF6FF7C400040F00100844507D2480040F001010F2992BF01200F21604628
:2027EC00400040F00100844507D2480040F001010F2992BF01200F2160465B1EE3D1002C67
:20280C000EDD40004FF6FF7240F00100824207D2480040F001010F2992BF01200F21101C7D
:20282C0040EA014010BD7047F8B507F00DFD314C256805F00C000C2855D0E8082ED22E4825
:20284C000068EFF3118780F311882C4EB068002107F0A0FE7169B269091A8A4238BF00213A
:20286C0087F3118826480068884217D22548264A264D036812682868B3FBF2F22018891A7E
:20288C0007F084FE2868201807F07CFE0120FEF709FA2868201807F071FE25E0280922D209
:2028AC001B48690939BF016821F00101016841F0010102460160D2F898004FF0805440F0D9
:2028CC000300C2F89800D4F8B8018069014620208847D4F8B8010F4C806B21688047012097
:2028EC002060206800E030BF07F0B4FC02F04AFDF8BDC046381D0020C4AC000078010020DC
:20290C00BCAC0000C0AC0000C8AC0000ACAC00008C2108402C2009402DE9F0430646ADF14E
:20292C001C0D07F027FE05F0D9FF4FF000090546CDF8009007F0C4FC30F0010002D000984F
:20294C00A84202D16FF0040059E070684C4658B1B0F1FF3F05D001A905F084FC30B107469E
:20296C004CE04FF0FF3000E02046019007F0FEFD0199012701EB000800E001936868019954
:20298C0007F0F0FD00282ED003A805F06DFAD8B9BDF8100002A905F04DFA88B9B368BDF8CC
:2029AC000800BDF81210059A984748B1BDF81270F781BDF80800B081059B33614F4612E05D
:2029CC000599684605F048FF0198641CB0F1FF3FD4D00028D2D007F0C9FDB8EB000302D0C8
:2029EC0001989842C9D2009905F1080006F074F924B1686807F0B2FD641EFAD1384607B0F6
:202A0C00BDE8F083BFB5384C0746401E3CD0354D401E21D0801E012833D9801E02D0801E31
:202A2C0025D05BE0284607F02DFB10B9284607F00DFDE0680A210022054605F0BDFF0022E2
:202A4C0028460F2105F0B8FF00222846152105F0B3FF02F010FE41E0284607F013FB10B956
:202A6C00284607F0F3FC002007F01EF936E006F0B3FE04F10C0000680A21012205F09CFFC4
:202A8C002CE006F0A9FE29E00F20052104F096FA4FF441706946FFF74FF99DF800009DF894
:202AAC0004308DF808009DF805108DF80E309DF801508DF80F109DF803008DF809509DF847
:202ACC0002308DF80D0002AA8DF80A3000208DF80C0008218DF80B0001F0CAFD2770009072
:202AEC00BFBDC046B405002020050020FEB5FEF725FF354C002504F1940606F019FE0028F4
:202B0C002DD1009501A80DF106016A4605F011FDD0B9BDF80400102807D16088BDF80610B0
:202B2C00884202D1009807F0ADFB009860B106F0B3FF09E0206906F047FD071C04D006F0CB
:202B4C003DFE384606F078FF206907F053FD0028F0D000F0A9FF06F02DFBFFF703FBA188B8
:202B6C002078CA0815D321F004010628A18018BF022803D1304607F069FC2078062802D152
:202B8C0007F062FC2078022803D10F20012104F015FA606907F02EFD0028AED1606907F098
:202BAC00D9FC0746387A012806D0022808D17889F96802F07FF803E07889F96802F0BAFF78
:202BCC00384606F039FFE4E720050020F8B506463448B568006874684168286888472A68BD
:202BEC0001210834C2F81C1868B12378FF2B0AD0FF214009217051D20420C2F8040802209C
:202C0C0007F0E3FB4AE02078002847D0401E13D0401E02D0FD3844D03DE0D2F80828A06EF3
:202C2C000270A06E401CA066E76E7F1EE76619D0012F88BF092127E0676E7F1E676613D1B3
:202C4C00E76E7FB10220E16D20702A68097C012F4FEA410141F00101C2F8001894BF0321A5
:202C6C000B2113E004210DE0206E2A680078C2F80808206E022F00F10100206604D2E76E53
:202C8C0017B90521002020702A680220C2F8041807F09BFBF8BDFF202070F8BD304603F0E9
:202CAC0003FBF8BDAC0100102DE9F04104466668A5680F46ADF1480D07F074FC96F8981047
:202CCC002D1D012903D107F069FC002050E04FF0010886F8988007F061FC1FB90DA807F03E
:202CEC00A1F90DAFF968204602F0E4FF0028ECD13878307078687060387A002130220823A1
:202D0C00F06001A807F056FC0694002700971A4A296806F1100001AB07F048FC01A824223B
:202D2C000823394607F04EFC8DF81C8006F12C00414601AA07F042FC307838B906F1480019
:202D4C00394601AA07F03AFC0C487060B7673772F767287900F084F8204603F0E9FC084A2A
:202D6C00009706F184000421234605F09BFB204612B0BDE8F081C046D92B000075A30000BC
:202D8C00D1A000003348F8B5057807F0BFF800284FD00120682102F02BFB002859D02E4C8F
:202DAC000920211D012208700F466B2006F010F900283ED007202071394601226C2006F014
:202DCC0007F9002835D001261D2039462671324606F0FEF800282CD04020207139463246D0
:202DEC00382006F0F5F820B3C020207139463246692006F0EDF8E0B125711F203946324690
:202E0C0006F0E6F8A8B106202071394632461E2006F0DEF868B129202071394632466B204C
:202E2C0006F0D6F828B1E11C1C20324606F0D0F810B907F02DFAF8BD3A203946324607F096
:202E4C00B1F907F025FA002020700449606905F09DFDF8BDB91E00201820002007000680C0
:202E6C002DE9F04105462E480068EFF3118880F311882C4A505D411C0028515549D12A4C71
:202E8C00A900675C07F03F003F280C4401D0FFF7E7FF607800F03F003F2801D0FFF7E0FF0C
:202EAC00668837F07F0019D1F80911D24FF08054D4F8B801406901463046884704F5DC748E
:202ECC002068406B0146304688470128F8D120E0164850F82610012088471AE04FF080545C
:202EEC00D4F8B801C069014630468847D4F8B801406A014630468847D4F8B801C06A0146DB
:202F0C003046884701210A4A0A48116001688908FCD388F31188284606F06EF8BDE8F0816A
:202F2C00C4AC00002C22002028A700006822002028200860282008402D492DE9F0410968C0
:202F4C00EFF3118881F311882A4B195C4A1E01291A5449D12849800045180E5C6F8836F004
:202F6C007F0019D1F00911D24FF08054D4F8B801806901463846884704F5DC742068406B6F
:202F8C000146384688470228F8D120E01D4850F82710002088471AE04FF08054D4F8B80139
:202FAC00006A014638468847D4F8B801806A014638468847D4F8B801006B01463846884780
:202FCC0001210E4A0E48116001688908FCD306F03F003F2801D0FFF7AFFF687800F03F00BB
:202FEC003F2801D0FFF7A8FF88F31188BDE8F081C4AC00002C22002028A700002820086069
:20300C0028200840682200202DE9FE4F0D4681460CAF287A3C8898469346800928BF08207D
:20302C0053D2084601A905F061FD012808BF01204BD0BDF80400DFF898A042F602110026AF
:20304C00FF27401A2ED048F2FF01401A32D0401E14D0401E24D10CBBB8F1010F1CD19BF8BB
:20306C0000001E2808DBE9680870E9685446601C88421FD102271FE080261BE074B9B8F192
:20308C00010F09D19BF80000E9680870E96854468C420FD101270FE00D260BE00B2609E0F6
:2030AC000A2607E000944846434629465A4603F0FBFD0646FF2F07D05046001D006818B113
:2030CC00016809B1384688473046BDE8FE8FC0461C1C00202DE9F0478146D9F808000E462D
:2030EC0000F10408D9F804507068002410B9F06800284ED0287801280FD107F053FAA96F3A
:20310C0039B1E96F8E61EE6707F048FA0120BDE8F087AE67EE6707F041FA07F043FA1E4F6A
:20312C0082463878012804D0042004F0ABFD01203870504607F032FA05F12C004FF0FF313B
:20314C00824607F00FFAD8F8000007F0FFF94846314602F075F8D8F8000007F0F3F9287825
:20316C0098B905F148004FF0FF3107F0FBF907F019FA0646387818B1042004F04BFC3C7080
:20318C00304607F00BFA287A00B90124504607F0E5F92046BDE8F087343B00202DE9FC475C
:2031AC000C4682460AAF207A3F8899461546800928BF082052D2084601A905F097FC012830
:2031CC0008BF01204AD0BDF80400DFF8948042F60211FF26401A2ED048F26311401A012844
:2031EC0027D827BBB9F1010F1FD1BDF804104AF666200027884202D12978032913DA29788A
:20320C00E2681170BDF80410884205D0E1684046884218D13E4618E0E1684046401C88427C
:20322C0011D1012611E080270DE00D270BE00B2709E00A2707E0009750464B4621462A460D
:20324C0003F032FD0746FF2E07D04046001D006818B1016809B1304688473846BDE8FC870D
:20326C00A81D00202DE9FE4F0D4681460CAF287A3C8898469346800928BF082052D20846FE
:20328C0001A905F033FC012808BF01204AD0BDF80400DFF894A042F602110026FF27401A74
:2032AC002DD048F23F11401A31D0401E13D0801E23D104BBB8F1010F1BD19BF8000040B165
:2032CC00E9680870E9685446601C88421FD102271FE080261BE074B9B8F1010F09D19BF8DC
:2032EC000000E9680870E96854468C420FD101270FE00D260BE00B2609E00A2607E0009466
:20330C004846434629465A4603F0CEFC0646FF2F07D05046001D006818B1016809B13846E8
:20332C0088473046BDE8FE8FF81A00202DE9FE4F0D4681460CAF287A3C88984693468009FA
:20334C0028BF082052D2084601A905F0CFFB012808BF01204AD0BDF80400DFF894A042F650
:20336C0002110026FF27401A2DD048F21F11401A31D0401E13D0401E23D104BBB8F1010FBB
:20338C001BD19BF8000040B1E9680870E9685446601C88421FD102271FE080261BE074B9D1
:2033AC00B8F1010F09D19BF80000E9680870E96854468C420FD101270FE00D260BE00B2613
:2033CC0009E00A2607E000944846434629465A4603F06AFC0646FF2F07D05046001D006862
:2033EC0018B1016809B1384688473046BDE8FE8F8C1B00202DE9FE4F0D4681460CAF287A3F
:20340C003C8898469346800928BF082052D2084601A905F06BFB012808BF01204AD0BDF836
:20342C000400DFF894A042F602110026FF27401A2DD048F27F11401A31D0401E12D0401EC0
:20344C0023D104BBB8F1010F1BD19BF8000038B1E9680870E96854468C4220D1022720E0F0
:20346C0080261CE07CB9B8F1020F0AD1E868594609880180E9685446601C88420FD101279A
:20348C000FE00D260BE00B2609E00A2607E000944846434629465A4603F006FC0646FF2FB9
:2034AC0007D05046001D006818B1016809B1384688473046BDE8FE8FBC1900202DE9FE4FD5
:2034CC000D4681460CAF287A3C8898469346800928BF082052D2084601A905F007FB01281A
:2034EC0008BF01204AD0BDF80400DFF894A042F602110026FF27401A2DD048F26F11401AF8
:20350C0031D0401E13D0401E23D104BBB8F1010F1BD19BF8000040B1E9680870E96854466F
:20352C00601C88421FD102271FE080261BE074B9B8F1010F09D19BF80000E9680870E96813
:20354C0054468C420FD101270FE00D260BE00B2609E00A2607E000944846434629465A46F7
:20356C0003F0A2FB0646FF2F07D05046001D006818B1016809B1384688473046BDE8FE8F62
:20358C00AC1C0020F8B58C4645688468DCF8007095F85810B8B288401FFA80FE2068B0F1F4
:2035AC00804F14BF234B244BDCF80820234832B995F858108E00815905F1720207E095F8F3
:2035CC0058108E00811951F8081C7244521E99605A6021683A0143F6F077103A08311740CB
:2035EC0019609A683A439A602368B3F1804F14BF134A144ADCF804C0BCF1000F04BF805951
:20360C00A61D05D0801950F8100C0EEB0C06761E906016605160906807439760A168EE6EB5
:20362C00E0680843716809688862586A40F003005862F8BD0005002030040020D4A700005F
:20364C0010050020400400202DE9F8430C46064620687568B768002850D006F0A3FF696D9C
:20366C0021B106F09BFF0320207447E04FF0010884F810806C6506F091FF95F8700030B175
:20368C0095F859201F49A86E114305F07FF93968486840F00200486030462146FFF772FF6A
:2036AC003968486940F001004861676806F07AFF154C8146207801280AD017F0704F02D138
:2036CC00102004F0DFFA042004F0DCFA84F80080484606F063FF287830B9696805F1380485
:2036EC00204606F03FFF10B14046BDE8F8833046FEF7B8FC2046002106F034FF0020BDE829
:20370C00F883C04600000680353B00201CB52D4C401E02D0401E44D01CBD06F0C5FD400940
:20372C0031D32089FF2831D00120694603F0B0FFBDF8000010F07F0F18D0BDF800002081B5
:20374C00022001F0CDFF06F0E1FBA8B11E48006841F28831B1FBF0F006F0F0FE04F03CF900
:20376C00BDF8001041EA0020208105E0BDF800002081002001F0B4FF04F10802012002214A
:20378C0002F034FC07E0FF20083420800120FF21022205F029FF00201222014605F024FFE4
:2037AC001CBD02200DF1020103F072FF9DF802002346410001EBC001D98003F1280002F048
:2037CC0045FE1CBDB81E0020C8AC0000F8B52C4E2C4D012806D060BB31460020491C06F0AB
:2037EC0009FB26E03146012006F004FB0C462078022817D0611C002004F09EFB28680A2146
:20380C000022074605F0D8F8002238460F2105F0D3F8606806F0B2FE28681521002205F08D
:20382C00CBF806E006F040FD611C6070002004F083FB31460878012821D10C4628686178F4
:20384C000646490834BF002201220A2105F0B4F86078800834BF0022012230460F2105F088
:20386C00ABF861786068C90807D206F087FE28681521002205F0A0F8F8BD06F083FEF8BD7D
:20388C00802000202C0500202DE9FF4704F0C2FD274C4FF0FF3104F1100000F0BDFA254801
:2038AC00254D066825484FF47A77B5FBF6F8B0FBF6F938E0012005F063FB404606F03EFEFF
:2038CC0002A803F0CBFA8246002005F059FBBAF1000F1CD002A801A96A46FEF7B1FE9DF866
:2038EC0005308DF809309DF804208DF808209DF806008DF80A009DF802108DF80D109DF85B
:20390C0001308DF80C309DF800208DF80B200020062102AA02F09EFCA0887843401BB0FBDC
:20392C00F6F006F00BFE20780128C3D04846F8E7700D0020C8AC00008038010040420F007A
:20394C00F8B50D46EEB2290824BF26494D40264BB400195985EA01020240C2F3006C234AD2
:20396C0000EA05078143FF323A4000F4E0270A43B7F5E02F01D1510E15D300F4E0215CEA7F
:20398C00010710D002F4E027B7F5A02707D0B7F5803704BF22F4003242F4A02203E022F48D
:2039AC00803242F4C0221A51114CC10D04D3A4F18001C5F380528A55000E11D306F0F2FD6E
:2039CC00290E03D201210022B14002E00121B1400A46503423688B431A43226006F0DEFDC8
:2039EC00F8BDC046006000A000100840007F077F8020024041F21C3010B5C5F2000004685A
:203A0C00B4F1FF3F08BF002406F04EFA40F2844346F25C01002242F2082E012040F2801C85
:203A2C00C4F26023C4F20C011A60C4F2043E0860C4F2283CCEF80000DCF8000038B140F2D5
:203A4C000010C4F2203000682046FCF7C9FD44F20402C4F203021068052142F24803C2F2F5
:203A6C000001C4F2030320F003000143116019684FF0000EC0F2391E6FF35B414EEA0100A7
:203A8C000421C4F2090118600868C0F30130012809D10A684FF6FF70CFF6FC40104040F4BB
:203AAC0000320A60086010BD70B5284C20786178884249D005F0ECF9254D2078297802298C
:203ACC0002D106F0F1F820786378224E99081AD3810818D22978062911D1E2682169356821
:203AEC00891A05FB01F24FF47A75B2FBF5F140F6B8358D4207DA41F270728A4203DD02F0D9
:203B0C0051FB2078637803F0030103291CD100F00301032918D031682569E26843409B082B
:203B2C003CBF6268A56841F27076AD1A4FF47A726943B1FBF2F18E4206DA15200A2103F05A
:203B4C003DFA05F02DFE2078607070BD1822002020050020C8AC00002DE9FE4F0D468146DD
:203B6C000CAF287A3C8898469346800928BF082046D2084601A904F0B9FF012808BF0120FC
:203B8C003ED0BDF80400DFF87CA042F602110026FF27401A22D04AF2C031401A0BD0401EBC
:203BAC001AD1BCB9B8F1010F12D19BF80000E968022708701CE06CB9B8F1080F08D159461F
:203BCC000A6850460E3049680260012741600FE00D260BE00B2609E00A2607E00094484657
:203BEC00434629465A4603F05FF80646FF2F06D05046006818B1016809B1384688473046DA
:203C0C00BDE8FE8F601A00202DE9F0410E46294990461C4606AF8C4672680878BB8851789A
:203C2C003F881278002502EB012242F62321521A29D0521E052A18D9921F0CD0263A34D18F
:203C4C00072F30D8C7F10700984298BF83B2674407F1080121E0B84225DBC01B9842D8BF02
:203C6C0083B22380DCF804000BE0F06806F044F980B2B84217DBC01B9842D8BF83B22380D0
:203C8C00F06839180AE0082F0DD8C7F10800984298BF83B207EB0C010F31238040461A467B
:203CAC0000F000FA03E0072501E025800A252846BDE8F081981500202DE9FC4705F05CF857
:203CCC00284C002565704FF6FF70E08203F0A2FF234F2A462070012039461346009004F1D0
:203CEC00A80002F023FF4FF002082A4604F1CC003946CDF80080134602F018FF04262A46C2
:203D0C0004F1F00039460096134602F00FFF04F14A09102248462946A67001F00DF804F1CC
:203D2C005A0A10225046294601F006F804F12C073D60E57107202572102160724A46A5726A
:203D4C00404604F047F903201021524604F042F930463A46014604F03DF9BDE8FC87C046ED
:203D6C000D9C0000E409002029482DE9F84FD0F80090EFF3118589F31188264CA068012132
:203D8C0006F008FC4FF0010A4FF00008064621686769A4F81CA02068A4F81E80791A321AEE
:203DAC008A42A6EB07062DD385F311884546EF195046394606F0BEFB761B0546B542F6D983
:203DCC00EFF3118B89F31188E08B012804D14046394606F0AFFB0546B5F1FF3F06D0A16927
:203DEC00AD1BA94238BF0D1CE91901E0A5697919284606F09BFBA4F820A0A4F81C805D4630
:203E0C00276001E0A4F81C8085F31188BDE8F88FC4AC0000780100202DE9F84F0E460446B5
:203E2C0006F0ECFB834625480068EFF3118A80F31188D4F808904E4533D01E481E4D076838
:203E4C00002E06D4AF69012000FA06F807EBC60702E04FF000087F19207D012817D1204689
:203E6C0006F060FB206C06F0C5FB18B1E1686868884368602869844212BF381C6F61386842
:203E8C00214606F04BFB686848EA00006860A660C4F80C802764002E44BF00206861012095
:203EAC0028818AF31188584606F090FB4846BDE8F88FC046E805000000010020C4AC0000DA
:203ECC00F8B5264C2068EFF3118680F3118824491D4D0B680420B0FA80F043F00403281AA6
:203EEC001F3002780B60521C027086F311882068EFF3118380F311880A680820B0FA80F0D2
:203F0C0042F008022D1AE87F0A60401CE87783F311880E20FEF7A4FF0C480068C0F3815071
:203F2C00032814BF0020012009490A4A088017683FB9094C402020600123D361002048603C
:203F4C00F8BD0120F8BDC046E8220020B43F00509C21002004800C402C500C40C4AC000072
:203F6C00381D00202DE9F84304F0E2FF5FEA000844D00024204601F00DFE04F58054E00CF6
:203F8C00F8D01F4F0026B8F1000F35D006F5003001F000FE5FEA00082AD03546002438467A
:203FAC0029464FF4807200F07DF8A01900F500394FF480713A46484601F0D1F85FEA0008B8
:203FCC0010D048464FF480713A4602F079FCA978BA780020914204D1E978FA78914208BFC4
:203FEC000120804604F5807405F58075200BD6D006F58056700CC6D005F000F9BDE8F88330
:20400C0028060020F0B520480127F84201D002F025FE204D204F214EBD4206D203CD047883
:20402C00A4003459401CA047F6E71D48002800D08047164D164FBD4202D210CDA047FAE7BF
:20404C00F0BD03251BE0416808300A1C2A400BD11A1C2A40AB4305D0046804300C60043193
:20406C00043BF9D1131C05D0047801300C700131013BF9D1021C2A4001D0A84304300368E3
:20408C00002BE0D17047C046FFFFFFFF0000000000000000B4B800003CB90000ACB80000BA
:2040AC0059C50110002A4AD05FEA000C8B071CD1830722D1102A08D370B4103A78C978C034
:2040CC00103AFBD270BC103238D0042A2CD3082A05D30C2A24BF08C908C008C908C008C9F4
:2040EC0008C092072AD0920F22E00B780370491C401C521E22D08B07F7D1C30714D183070A
:20410C00D8D0121F12D308C903801B0C4380001D121FF8D20AE008C903701B0A43701B0A54
:20412C0083701B0AC370001D121FF4D2121D05D00B780370491C401C521EF9D160467047C2
:20414C0010B50020442101F053F9002808BF002440D0214C1F200222214606F023F8002839
:20416C0035D021880806000C40EA2120782815D11020208021460220024604F029FF30B3DA
:20418C0002202146024606F00DF800B321880806000C40EA2120B0F5805F01D0208016E07B
:2041AC000020208021460220024604F011FF70B102202146024605F0F5FF40B121880806DB
:2041CC00000C50EA2120208008BF012400D0002406F05EF8204610BD203B00201CB50020E1
:2041EC00772101F005F9002808BF00243FD0D0206946012205F0D6FF002835D09DF80000BC
:20420C00582831D1F5206946012205F0CBFF00282AD09DF8000038BB55208DF80000694617
:20422C000122F42004F0D4FEF0B1F4206946012205F0B8FFC0B19DF80000552814D1B62004
:20424C008DF8000069460122E02004F0C1FE58B1F4206946012205F0A5FF28B19DF8000052
:20426C00002808BF012400D0002406F011F820461CBD70472DE9FE4F8046B8F1000F0192C1
:20428C000C9802919B46009005D0081C03D0101C01D0009810B90220BDE8FE8F1948017812
:2042AC0000252C4629E0A00038F800A04FF6FF7708EB000657451CD0B778D7B10198029ABA
:2042CC00594605F067FE5FEA000912D0780806D3009B504601214A4601F0F6F80543B0781A
:2042EC00800806D33088009B02214A4601F0ECF8054304480178641CE4B2A142D3DC284653
:20430C00BDE8FE8FE409002070B5054604F012FB43F6F424C2F200046668034604F093F941
:20432C0022699B1B4FF47A715943090C801A48BF404240F6B83249198A4216D3062814DADB
:20434C00A268E068824210D8216871B1801A44F24022C0F20F024243900C00EB1240814292
:20436C0012D90846C82811D312E043F6AC71C5F200014868400828BF4FF4FA600DD2096858
:20438C007D2001F0FF014843C82801D2C82070BDB0F57A6F88BF4FF47A6070BD38B5234DA4
:2043AC00401E02D0401E30D038BD05F07DFFC00823D32C78FF2C22D00120694605F0B4F80D
:2043CC009DF8000068B9A4B105F1080006F040F8002004F021F900200222014605F034FCBC
:2043EC0007E034B9012004F017F905F1080006F02DF89DF80000287038BDFF2028700120A5
:20440C00FF21024605F020FC38BD0220694605F08BF89DF800002C46410001EBC001618003
:20442C0004F1080002F012F838BDC046702100202DE98841071C3CD041F2783043F6AC728B
:20444C00C5F20000C5F2000200685168C0F3035CC0F3034E49081BD2D2F800804FEA08518F
:20446C001CEB217C05D4BCF1100F04DB4FF00F0C01E04FF0000C4FEA08411EEB217E05D47F
:20448C00BEF1100F04DB4FF00F0E01E04FF0000E4EEA0C1E00F47F4100F0FF02222F41EA56
:2044AC000E4142EA010208D300F080401043BDE8888143F62772C0F271021046BDE88881EB
:2044CC002DE9F843204D884606464FF0FF3105F12400814606F046F8002000E0401CB8F16F
:2044EC00000F0DD018F82010FF2909D02A688A4204D905EB8101096E0029EFD000261CE055
:20450C000024346074600127B4600EE005EB80000B787268066607FA03F0104370600A6817
:20452C000A49304604F01CFA641CB8F1000F04D008EB84010878FF28E8D1484606F00EF82E
:20454C003046BDE8F883C04628380020007FC76722482DE9FE4F801E028880465FFA92F1EF
:20456C00100100F47042801A1FFA80FBB8F80200C5B241185FFA81FA0021AA45019124DB53
:20458C00AAEB0506761CA8420CBF04240024AA45D8BFA34513DD284621466A4605F0C6FE40
:2045AC000427E94619F8011B019803F0D3FE7F1E0190F7D1241DA4B2B4F5805FE7DBB8F884
:2045CC0002006D1C761EEDB2DDD10198002103F0C1FE002103F0BEFEBDE8FE8F7618002047
:2045EC002DE9FC410E46307A1D46904608AF400928BF082038D23888002818BF0B2033D11E
:20460C000846694604F072FA012804D1002028800120BDE8FC81BDF800004AF601410024CD
:20462C00401A16D0401E0BD0401E1CBF2C800A2419D102202880F06800884146088012E04D
:20464C0005202880F068026841460A600079087109E001F015FC05480C3002782A80F168EB
:20466C004046FFF71FFD2046BDE8FC8118190020F8B50D461F4C20490728164638D8DFE887
:20468C0000F0192C2A2826242104284604F00CFF071C2DD0616804F11700884202D0606852
:2046AC0005F0D6F9384631462A46FFF7FBFC67602570F8BD082D1BD130680F34206077686C
:2046CC006760F8BD0C46153408E00C4606E0643404E04F3402E03A3400E025342046002188
:2046EC00152200F029FB204631462A46FFF7DAFCF8BDC046981500201116002038B504206A
:20470C0004F0A2FC1A4C022818BF03281FD103200090164800214FF040521C2301F00CFC3E
:20472C0017480068EFF3118380F3118815480421B1FA81F1401AC17F4A1E0129C27703D14C
:20474C00206820F00400206083F3118838BD094D0A48094A296803686018B2FBF3F105F038
:20476C0015FF2868201805F00DFF38BD00A00C40381D0020B0AC0000A0860100C8AC000003
:20478C00C4AC0000E822002010B51A481A490078086820F0030040F00100086002F05EFD08
:2047AC0003F09AFC0021154C154821600068C0680146022088471349134A086820F0010002
:2047CC0008601068D4F8EC1FEFF3118480F311880E4B0F481A680421B1FA81F1401A42F093
:2047EC000402C17F1A60491CC17784F311884FF0FF3010BD363B0020044003404010094054
:20480C00A00100108C210840C4AC0000381D0020E82200202DE9F041876846681D48006826
:20482C0004F030FF38680024C0F810483968C1F80448D1F8200820F01000C1F8200805F0E8
:20484C00B1FE154D8046287818B1042003F0E2F82C70404605F0A2FE387AFEF76DFB06F15E
:20486C00100005F057FE06F12C0005F04FFE307818B906F1480005F049FE06F1840004F00A
:20488C00E3FF05F08FFE86F8984005F087FEBDE8F081C046083B0020343B0020F8B50546D2
:2048AC001E480068EFF3118780F311881C4C20684FF0805640F080002060D6F88C01406860
:2048CC00014601208847D6F8B001006A014614208847286906F5C675810C14BF010C042109
:2048EC002868406A024601209047D6F88401006823210246002090472868C06901460120D3
:20490C008847206820F4C02040F480302060206840F00100206087F31188F8BDC4AC00006B
:20492C0000200940F8B5001D84B214F0030002D0241A241DA4B204F0A2FF01461948102CDB
:20494C0047680160C8BF8768388800221646C30BDD0319D126B984420ADD3A46012617E0C5
:20496C001388C3189BB29C42138011DC174618469FB1001B80B20428B4BF3C88385344F48C
:20498C0000443C803F1D08E080F40040002680B2C71938880028DAD10027084605F0D6F90F
:2049AC003846F8BD7C170020B0B50446A768ADF1280D27BB0C20FFF7B5FF071C16D0684605
:2049CC0000212422082305F09DFD002306976A466168ADF810301448059305F08FFD38607F
:2049EC0038B905F0A8F9384603F044FE6FF0030018E0E06878602069B860A7600AE004F071
:204A0C003EFF0546386805F0B9FD2069B860284605F09CF93868616805F0B8FD386805F076
:204A2C00B1FD00200AB0B0BDFDA100001CB51F4C401E02D0401E2DD01CBD05F035FC000908
:204A4C001DD32078FF281CD00120694604F022FB9DF8000030B19DF80000012816D1012191
:204A6C00217007E0002006222070014605F0D4F84FF0FF3104F11000FFF7CEF906E0FF209C
:204A8C0020700120FF21024605F0C6F8002004F077FA1CBD0220694604F0FCFA9DF8001080
:204AAC00241D480000EBC10020801CBD700D00202DE9F04106460F460020442100F098FCAE
:204ACC00A0B31B4C04200222214605F06BFB5FEA000822D021880806000C40EA2120C0F3E2
:204AEC0080382080C00B18D3A11C0120022205F059FBA51C5FEA00080FD0A91C0320022254
:204B0C0005F050FB80462978AB78EA78687840EA0120308042EA0320388005F0B9FBB8F129
:204B2C00010F03D0A01C042105F00EFABDE8F081203B00201CB51E4C401E02D0401E2AD054
:204B4C001CBD05F0B1FB40081AD32078FF2819D00120694604F0D8FC9DF8000038B90020B4
:204B6C000422014605F07CF84FF0FF3100E0012104F11000FFF750F99DF80000207006E093
:204B8C00FF2020700120FF21024605F069F8002002F0A4FC1CBD0220694604F0B5FC9DF8E5
:204BAC000010241D480000EBC10020801CBDC046E012002070B505F0A9F9002832D002F03B
:204BCC00A7FA88B301200C2100F012FC60B3184C0F20211D012208700E460A2004F0F8F9BF
:204BEC001248006842F21071B1FBF0F005F0A6FC1020032204F10E0105F0D4FA06F10A05ED
:204C0C0050B128786B78AA788030208103F18000608102F18000A08101220B203146227150
:204C2C0004F0D6F905F034FB70BDC046C8AC0000182000202DE9F84304F0B2F804F0B4F9F2
:204C4C001B4D4FF0FF3105F11000FFF7E5F81548154E164F04684FF47A79B6FBF4F81AE03A
:204C6C00012002F03BFC404605F068FC0DF102006946FFF71DFF002002F030FC00200421BB
:204C8C006A4601F0CDFDA88809FB00F0801BB0FBF4F005F053FC28780128E1D0B7FBF4F0FB
:204CAC00F7E7C046C8AC00003832040040420F00E01200207CB50D4606461C4C69782878C6
:204CCC0000EB0120ADF800006188BDF80000884215D1606940F6FF7300EB0110034203D143
:204CEC00000BC0B205F074FBBDF80000A91C000105F09EF86088401C81B2618007E005F08D
:204D0C008DF830464FF6FF7100F0E4FE6188A088884207D102F00CF908B104F025FD05F097
:204D2C007DF87CBD304600F0D5FE7CBD70180020002213460A46194671B510F0030F0BD062
:204D4C00002A82BF00F8011BB2F1010210F0030FF6D1002A08BF71BD11F0FF0141EA0121DC
:204D6C00042A18D341EA0141082A0FD30E46102A08D30C460D46B2F10F0312F00F0272C085
:204D8C00103BFCD812F0080F18BF42C012F0040F18BF40F8041B12F0020F18BF20F8021B94
:204DAC0012F0010F18BF017071BDFEE770B5154686684268B1F1200002F10C0427D0401E48
:204DCC0021D0401E1CD1906E15492A78114300F055FD90B93068B0F1804F14BF23220B2261
:204DEC002978E06D04F0B0F9E06D94F84D1001F03FFD287884F84D0010E04FF0FF3070BDC5
:204E0C006FF0010070BD002084F8640070BD21780020012908BF012084F86400002070BDD4
:204E2C00002000801CB51C4C401E02D0401E27D01CBD05F039FA80081AD32078FF2819D0EA
:204E4C000120694604F0F0FA9DF8000038B900200422014604F0ECFE4FF0FF3100E0012136
:204E6C0004F11000FEF7D8FF9DF8000020701CBDFF2020700120FF21024604F0D9FE1CBD7B
:204E8C000220694604F0D0FA9DF80010241D480000EBC10020801CBD281000202DE9F8437B
:204EAC0080460878914608AF02281AD01748184D4F68046810222946384604F073FA002671
:204ECC0010B904B3012008E005F110013846102204F068FA70B9B4B1022041464A46A04782
:204EEC0011E048684278007842F6021600EB0220864201D00A2606E038884A460090404661
:204F0C0001F0D2FE06463046BDE8F883801800202CA8000010B51C4C00202070FFF710F97A
:204F2C0018B1207840F00100207000F041FC18B1207840F002002070FFF750F918B1207853
:204F4C0040F00800207001F032FD18B1207840F00400207000F038FF18B1207840F0100070
:204F6C00207002F07BFA18B1207840F02000207005F022F8002808BF207803D0207840F0BC
:204F8C004000207010BDC046983A0020F8B50E46307A1D46144606AF400928BF08202FD2FA
:204FAC003888002818BF0B202AD10846694603F09DFD012803D1002028800120F8BDBDF826
:204FCC0000004AF681210027401A12D0401E0AD0401E1CBF2F800A2711D101202880F0682C
:204FEC00007820700BE002202880F0680088208005E012222A80F1682046FFF753F8384627
:20500C00F8BDFEE770B50646F088F5680B28A5F108052CDAB0880B2829DA04F030FC154CD9
:20502C00F28891000C3401EBC20161184968E1B104F08CFE30792870B0796870307AA8702C
:20504C00F188880000EBC1002018F1684068083003F002FCF188880000EBC1002418606884
:20506C00406805F07BFA002070BD04F06FFE6FF0020070BDE0170020FEB51B4D0C46A96841
:20508C00064604F0C7FF40082BD330460821002204F024FB074601971FB32A46092102F1A0
:2050AC00180004F077FF08254089ADF80250ADF8000022783A702188019809124170A17865
:2050CC0081706188231D0912C1701968051D30462960694604F0C6FB18B168461B2104F0B1
:2050EC000BFB04F09BFEFEBD7018002041F2A00108B5C5F20001D1F878020B68020F03F0AB
:20510C00FF03802B28BF002302F045FE4FF0FF3188B1401E05D0401E1FD1F2B90A3358B27C
:20512C0008BD101C02D0801E02D016E00A2008BD143358B208BD1046401E0DD0801E04D032
:20514C00001F04D0401E04D007E0142008BD152008BD163358B208BD0A21084608BD2DE9D8
:20516C00FC4117460E4605464FF0020801F02AFD18BB03F063FC00BB05F0FF04C4F5807404
:20518C00B44288BF341C8DF800808DF80350280C8DF80100280A8DF8020004F08BFF6846FA
:2051AC00042103F0BFF8361B651920B93846214603F0B8F820B104F075FF0020BDE8FC8169
:2051CC0004F070FFE719002ED0D10120BDE8FC812DE9F84303F036F9164D4FF0FF3105F113
:2051EC001000FEF719FE1448144F046843F698264FF47A79B6FBF4F816E004F011F8404619
:20520C0005F09CF90DF10201684601F03DFF002004216A4601F064FAA88809FB00F0801B19
:20522C00B0FBF4F005F08AF928780128E5D0B7FBF4F0F7E728100020C8AC000040420F000C
:20524C0098B54368806803F1080259660B6813664B6853668B689366C968D166576E77B904
:20526C000168D06D007C400040F00100C1F8000802201070D26E022A12D30B2211E0D16D7F
:20528C000368097C4900C3F8001801271770116E04684B1C13660978C4F808180168022094
:2052AC000322C1F8042805F090F898BD38B50079184CA0B904F0E3FA2178002904BF6FF02E
:2052CC000704051C13D0491EC9B2217029B904F03DFD606802F00EFD18E0054613E004F041
:2052EC00CEFA05462078FF2805D16FF00604284604F02CFD0BE0401CC0B20128207002D1C1
:20530C00606802F012FD284604F020FD0024204638BDC04680220020B0B5ADF1400D05F0AD
:20532C006DF9044600213C220823684605F0E2F81148416806918168006804901048001D97
:20534C000068002205900D480891694605F0CEF8071C0DD004F093FA0546384601F074FB20
:20536C0030B1284604F0F2FC204605F02FF901E001F098F810B0B0BD10A6000061A0000027
:20538C006C17002045F2280080B5C4F2090007686FB343F6AC70C5F20000826802EA520145
:2053AC00C90E24D24168890821D20021C4F20901D1F800C000681CF0050F4FEA104000F07C
:2053CC00F00000F5E0700CD1B84210D2100F38BF4CF0010CD00E38BF4CF0040CC1F800C0DA
:2053EC0080BDB84284BF2CF0050CC1F800C080BD70B50D461449184C124A09680646241FAF
:20540C0004F11400B2FBF1F105F0ACF8002808BF002015D00D4805700D4D2878B0420ED0C7
:20542C0020682E7004F06EFF201D04F0FBFD2878012804BF0748206104F0DAFA20600120EB
:20544C0070BDC046A0252600C8AC0000323B0020333B0020E2AC00006C3A0020FEB5194C27
:20546C000546208C218B81420CDC618B814209DBA08B618C884205D1E08BA18C884208BF5E
:20548C0018271DD0052002F0A9F8278B638BADF80270A28BADF80430E18BADF806200646DC
:2054AC00ADF80810E08AADF80000684604F094FE071C05D1A57304F1F000314602F056FB30
:2054CC003846FEBDE4090020F0B50E4615461C460746ADF11C0D4FF6FF7103AA04F0FEF864
:2054EC000246059212B300200090BDF80C000DF1120329460190FF2002903846A047041C42
:20550C000FD16889ADF81000700804D3384604A904F0A8F903E0384604A904F0DBFD041CF0
:20552C0005D004A81B2104F0E7F800E01524204607B0F0BD38B5184D1549686903F026FA58
:20554C00FF20A87000242C7068216C700120FFF74FFFD0B129468020012208716B20091DA1
:20556C0003F036FD04F094FE0C480A490068B1FBF0F004F0E3FF00F027FC041C05D001F009
:20558C00A5FDFFF717FB01F089FF204638BDC04607000080A086010018200020C8AC000001
:2055AC00F8B50E46307A1D46144606AF400928BF08202AD23888002818BF0B2025D1084640
:2055CC00694603F093FA012803D1002028800120F8BDBDF800004AF641220021801A0CD006
:2055EC00401E04D0801E1CBF29800A210CD101202880F0680078207006E006202880F0680E
:20560C00026822608088A0800846F8BD2DE9F041054615F8017B90460E461CE0B8F1000F6E
:20562C0005F101050BD0FF2C09D8022015F8011B401E41EA0424F9D101E0042C02D315F8C2
:20564C00011B00E0394630462246FFF775FBA61901E006F8010B15F8010B8742F9D115F81C
:20566C00014B002CE9D115F8010B2C7800022418D4D1BDE8F08100B540F21630ADF1140D4A
:20568C006946FCF759FB40F213300DF10201FCF753FB4FF4467001A9FCF74EFB9DF80000DD
:2056AC008DF80600BDF8000000128DF807009DF802008DF80800BDF8020000128DF8090085
:2056CC009DF804008DF80A00BDF8040000128DF80B000DF1060003F09BFA05B000BDFEE758
:2056EC0038B5174D041C09D10020287002F0DAFC03F0A8FD05F1280004F0AAFE022C1ED164
:20570C002C4602202070E0884FF47A710A25B1FBF0F0657001B2480000EBC100E06000202C
:20572C00A070E0700749087002F044FE208900F0FF0002F0B7FC04F1280004F087FE38BD39
:20574C00B81E0020313B002030B5002124220823ADF1240D684604F035FF114C01252946AD
:20576C006A468DF8185004F1140004F027FF0D4801684FF44070884702F0A4F9201D04F01D
:20578C0051FC257304F034F9074AFF211170074A20600021117008B904F0A4FE09B030BD95
:2057AC00683A002078000010323B0020333B00201CB500204321FFF71BFEFE200222694623
:2057CC0004F0F0FC10B3BDF80000BDF8001045F249440006000C40EA21208442ADF80000F4
:2057EC0014D1FF206946022204F0DCFC70B1BDF80000BDF800100006000C40EA2120B0F53D
:20580C00805FADF8000008BF012400D0002404F03FFD20461CBD10B5012003F015FC012896
:20582C0029D04AF20000342101220023C4F20C0001F038FB002808BF00201DD08020C1F257
:20584C0000000068804703F075F843F6F42344F24022C2F20003C0F20F029C681968D8608E
:20586C00041BA1EB91016243120C8A4224BF1A60012001D21960012010BD70472DE9F0419A
:20588C00071C0E4604D0144C2068F5B2A84202D80220BDE8F08104F124004FF0FF318046D8
:2058AC0004F060FE04EB85046034206860B979680120A84027603246084308497860384602
:2058CC0003F04EF8002400E00124404604F046FE2046BDE8F081C04628380020007FC767ED
:2058EC00F8B50E46307A1D46144606AF400928BF082026D23888002818BF0B2021D1084605
:20590C00694603F0F3F8012803D1002028800120F8BDBDF800704AF6212100207F1A0BD018
:20592C007F1E012F84BF28800A200AD801212980F16809782170F8BD04212980F168096814
:20594C002160F8BDF8B50E46307A1D46144606AF400928BF082026D23888002818BF0B20AE
:20596C0021D10846694603F0C1F8012803D1002028800120F8BDBDF800704AF6012100203E
:20598C007F1A0BD07F1E012F84BF28800A200AD801212980F16809782170F8BD042129800A
:2059AC00F16809682160F8BDF8B50E46307A1D46144606AF400928BF082026D23888002886
:2059CC0018BF0B2021D10846694603F08FF8012803D1002028800120F8BDBDF800704AF650
:2059EC00712100207F1A0BD07F1E012F84BF28800A200AD801212980F16809782170F8BDC6
:205A0C0002212980F16809882180F8BDDFF85CC0021C38B51ED0521E13D0521E0CD0D21EF3
:205A2C0021D163462025042200219D73C0241A7302254022DD7313E0002203259F24114682
:205A4C0002E002256B24002263461D735C739A73DA7306E0022463461C7300229A73DA735E
:205A6C005C731A7459706346187038BD1819002098B541F23403C4F2090318680004070C6D
:205A8C0026D002F0E0FD43F62832C2F2000292F90710814205DD10F1800FB8BF6FF07F00C0
:205AAC00D0719188B94212D81468D3F8D40F001B801C1F2888BF1F207F1A4008C7404FF6C0
:205ACC00FF70C919884238BF011C918098BD978098BD0000FEB5164C0D46A41FE1680646F9
:205AEC0004F098FA400821D330460221002203F0F5FD07460197CFB1224602F11800092136
:205B0C00521C04F047FA02244089ADF80240ADF800003D7001992A1230464A70694603F006
:205B2C00A1FE18B168461B2103F0E6FDFEBDC04676180020FEB5074604F084FC0C4610B13B
:205B4C00684601F0D7F8E179A079114B0025261D00EB01205D80801069469880304602F0EC
:205B6C0099FB20B938466946FFF786FAFEBD304604F002F95861000BD88004F07BFA2046FE
:205B8C0001F08CFB38462946FFF7A4FFFEBDC0467018002098B5044620208DF8000004F63C
:205BAC00FF706FF30B04001B00F6FF70000B1FD0074601F007F898B902F040FF80B9200C5B
:205BCC008DF801008DF80340200A8DF8020004F071FA6846042102F0A5FB18B104F062FADD
:205BEC00002098BD04F05EFA04F580547F1EE0D1012098BD38B504F0D5FC154C0546A01D2C
:205C0C00008840B9FEF75CF90446102000F0F6FA012C0DD017E0FFF7FEFD60B10020E080D0
:205C2C00FEF74EF90446102000F0E8FA012C0AD1FCF710FC07E030340521204604F0A6FC5C
:205C4C00204604F09FFC284604F0A8FC38BDC046381D0020F8B5054605F128020CCA084691
:205C6C00002104F015F805F1300292E8C00036184FEA164447EB01073804044302F05AFEAC
:205C8C00211AB1F1004F08D8011B091DC90F05D1001DA04288BF041C00E0041D04480068E1
:205CAC00426A214601209047383585E8C000F8BD8C010010FEB519B98068057B447B01E054
:205CCC000D784C78FF2D1CD0FF2C1AD00E48FF2740EA050100910D4E02972043694601906E
:205CEC00301DFEF7EDFB0746376057B129460D2203F02AFA384621460E2203F025FA002086
:205D0C00FEBD4FF0FF30FEBD00200084083B00207FB54FF0805606F5EC742068124D036896
:205D2C0001210A4628469847D6F8D801426801212846904703F025FB4FF4F83630461021B5
:205D4C006A4600F0BDFD38B168463146102203F08AFC1036700CF1D02068426800212846E0
:205D6C00904700907FBDC0460040034070B504F0CDF810B301F0CCF908B301200C21FFF795
:205D8C0037FBE0B10F4C0125211D0B202A460E460D7003F01DF90A48006842F21071B1FBE5
:205DAC00F0F004F0CBFB2078C00906D31120207131462A460A2003F00BF904F069FA70BDB5
:205DCC00C8AC00001820002010B504F09FF8F0B101206821FFF70CFB002808BF002419D057
:205DEC000D4CE07940B10E480C490068B1FBF0F004F0A4FB0020E071211D7520012204F067
:205E0C00D1F920B12079712808BF012400D0002404F03EFA204610BD18200020A0860100EB
:205E2C00C8AC000038B504F071F818B301206821FFF7DEFA00B3114C0920211D0122087043
:205E4C000D466B2003F0C4F8A0B13F202071294601226C2003F0BCF80021217050B1E11CF3
:205E6C001C20012203F0B4F820B13A202946012204F098F904F00CFA38BDC0461820002089
:205E8C00F8B5154C04F10C0120780F78012802D9401F18D0F8BD4E7825466D1C2978FFF776
:205EAC00A7FA04F111013A46304604F07BF938B937B1FF2110353846401E05F8011BFBD1D1
:205ECC0004F0E6F9F8BDD1F8011011343A462046FEF7E8F8F8BDC046181900201549096879
:205EEC0021280ADC212819D00C380FD00D380FD0001F0FD0C01E0FD01AE0253810D0401F9D
:205F0C0010D0401E10D0401E10D011E0086870474868704788687047C868704708697047E4
:205F2C0048697047C8697047086A7047486A704700207047F00100202DE9F041984600EB7B
:205F4C0041001646B8F1100F06AF00F5007404D3A8F1100800F50174360C3D8804F074F958
:205F6C0005FA08F545EA06450021002808BF012148F20002C4F20C02106810B9106800288C
:205F8C00FAD025600120106009B104F063F9BDE8F0810000B0B5044604F0ECFA00F054FD2B
:205FAC00054603F06CFC0146A2880F480023603030F80C7F5FB902804560A381A2688260B2
:205FCC00686820610024084603F0C0FE09E0974208BF6FF00204F6D05B1C0B2BE8D300F035
:205FEC0061FA2046B0BDC0468017002038B5134C0B4611461A4670B1401E06D0401E1BD1B7
:20600C00012A04BF0878207038BD022A14D10888641C208038BD122A0ED104F10C05122276
:20602C002846FEF73FF806480090A06804F1200208232946FEF71EF938BDC046BC19002027
:20604C00994F00007FB5866831684568486820F0020048603168486920F00F0048613068D0
:20606C000321016202A804F039FA0B4800680468286900906869074B0190297E03EB8101A9
:20608C000A6A297B306853F821300399A04700907FBDC046BCA70000C4010010F0B5144C16
:2060AC00241F65686879ADF1340DFCF7D9FE04F079FA26680746307890B901A800213022EB
:2060CC00082304F077FA069400200090074A297901AB301D04F06AFA0120307003F064FA84
:2060EC00384604F05BFA20460DB0F0BD6BA3000078AB0000F8B50E46307A1D46144606AFAF
:20610C00400928BF082020D23888002818BF0B201BD10846694602F0E9FC012803D1002062
:20612C0028800120F8BDBDF800004CF6C141814208D106202880F068016821608088A08008
:20614C000020F8BD002028800A20F8BDF8B50C46207A1D46164606AF400928BF082020D260
:20616C003888002818BF0B201BD10846694602F0BDFC012808BF012013D0BDF800204AF68C
:20618C0065210020914207D0BDF80020491C91421CBF28800A2004D101212980E16809787F
:2061AC003170F8BD1CB5144C2078062815D040F205300DF10201FBF7BFFD9DF802000028CC
:2061CC000CBF0120002001210DF101028DF8010040F20530FAF7E2FE207806280AD1012400
:2061EC008DF8004003F0A4FB40F205306A462146FAF7D4FE1CBDC04620050020F8B50746DD
:20620C001248134C0668301904F0F4F90025A419C0B9204604F0EAF90646B068074206D006
:20622C00F268316938469047C0B2012806D0304604F0D8F90646B442EFD103E002480068C6
:20624C00804702252846F8BDB8AC0000B4AC0000381D00208C4601461046114A08B571B13F
:20626C00491E08D0491E1AD1BCF1010F17D1521C0078107008BDBCF1010F10D1F8E7BCF187
:20628C00060F0CD1036802F10C010B608088888004480090906808231432FDF7EBFF08BD32
:2062AC00F81A0020AD55000070B504466368596E187A002203F1640500B901225B68204687
:2062CC0098476869A969814210D100242C606C6104F068F9084D0646287818B1042001F05B
:2062EC0099FB2C70304604F059F970BD816920466961FEF7A5FF70BD343B0020B0B504465B
:20630C0003F0DEFF30F0010008BF6FF004041BD004F030F9054603F0B2FA0C4A0B2132F8B4
:20632C000C7F6FB1A388BB4208D1526812680021954208BF0121A160002403E0491EEED162
:20634C004FF0FF3403F002FD2046B0BDE01700208C4601461046104A08B579B1491E09D0F3
:20636C00491E18D1BCF1010F15D10D4A521C0078107008BDBCF1010F0DD1F8E7BCF1020F64
:20638C0009D10088911C088004480090906808230C32FDF76FFF08BDAC1C0020B559000000
:2063AC00AC1C0020F8B5134C03F07EFF083C611C0870002001F0C0FD002601202146267022
:2063CC0001F0BAFD0A4DE8680A213246074602F0F3FA38460F21324602F0EEFA606804F0D7
:2063EC00CDF8E8681521324602F0E6FAF8BDC04620050020882000207CB502F00DFD03F014
:20640C0093FB0F4C002525814FF47A76E680257025710C48057002F053FB18B102F0E2FA58
:20642C0003F07EFD02206421012203F0DDF800950549E38804F12800324600F077FB7CBDD2
:20644C00B81E0020303B0020AD9B00002DE9F0410C46804604F002F8002700B1012717B152
:20646C00404604F08BF80D4D28684FF47A76B6FBF0F080B204FB00F1404604F087F82868BA
:20648C00B6FBF0F080B204FB00F1404603F0E8FF17B1404604F076F8BDE8F081C8AC0000A3
:2064AC0000BF704708B5FFF7FBFFFEE738B50D4C0546A06820B10C48B0F1FF3F00D0804794
:2064CC000A4800688047606810B1014628468847206800B18047064800688047FFF7E2FFCE
:2064EC0038BDC04650220020FFFFFFFF882200208C2200201CB5044645210020FEF778FF62
:20650C0008B301206946022203F04CFEA8B1BDF800006FF30E00B0F5004F0ED10020694663
:20652C00022203F03FFE40B1BDF80000BDF80010000240EA2120208003E02046022103F024
:20654C0003FD03F0A5FE1CBDDCB5044604F012F802F0C4F9064603F0B3FE30F0010014BF54
:20656C00002E6FF0040017D0606858B1B0F1FF3F05D0694601F076FE30B107460BE04FF0A6
:20658C00FF3000E0002000907068009903F0EAFF002700B901273846DCBD70B504464AF219
:2065AC0000060D466008ADF1080DC4F20C0607D3A8B20021009001220B463046FFF7BCFC16
:2065CC00A00807D3A8B200900021022201233046FFF7B2FCE00807D3A8B2009000210C22C5
:2065EC0002233046FFF7A8FC02B070BD01281FB504D0022821D103F09BF91EE001A803F06D
:20660C00F1FC022000909DF805109DF804009DF807209DF809309DF80B4000EB01209DF881
:20662C00061001EB02219DF8082002EB03229DF80A3003EB042300F0E1F900901FBD000040
:20664C00F8B5114C267CA578182002F0FDFE071C19D00421002203F081FC304602F050FDC8
:20666C0038727D720020B87204F14A06FE6004F15A033B6104F12C027A6102F0F5FE034A6A
:20668C00394601F04FF9F8BDE4090020FBA300002DE9F04104461148103090F80080164648
:2066AC000D46102002F0D0FE071C12D00421072203F054FC404602F023FD38727C72BD7296
:2066CC00FE6002F0D1FE044A394601F02BF9BDE8F0810420BDE8F08125A40000E409002087
:2066EC008C4601461046104A08B571B1491E08D0491E18D1BCF1010F15D1521C007810704E
:20670C0008BDBCF1010F0ED1F8E7BCF1040F0AD1006802F10801086004480090D068082387
:20672C001032FDF7A7FD08BD8C1B0020ED580000BCB545688468684603F0D0FE0F48E96881
:20674C0000680D4D036855F821702068002207B101220199984720680122C0F81C282168F4
:20676C00D1F8200840F01000C1F82008C1F804282068C0F81028BCBD3CAC0000AC01001080
:20678C00B0B5054603F0F6FE044603F099FD30F0010008BF6FF0040416D003F070F80146AC
:2067AC000A48002230F80C7F4FB143681B689C4204BFAA80002404D0521C0B2AF2D36FF0EE
:2067CC000404084603F0C2FA2046B0BDE0170020F8B5044603F0CEFE00F036F9071C19D0DD
